{
  "contractName": "ManaBank",
  "abi": [
    {
      "constant": true,
      "inputs": [],
      "name": "name",
      "outputs": [
        {
          "name": "",
          "type": "string"
        }
      ],
      "payable": false,
      "stateMutability": "view",
      "type": "function"
    },
    {
      "constant": false,
      "inputs": [
        {
          "name": "spender",
          "type": "address"
        },
        {
          "name": "value",
          "type": "uint256"
        }
      ],
      "name": "approve",
      "outputs": [
        {
          "name": "",
          "type": "bool"
        }
      ],
      "payable": false,
      "stateMutability": "nonpayable",
      "type": "function"
    },
    {
      "constant": true,
      "inputs": [
        {
          "name": "",
          "type": "address"
        }
      ],
      "name": "tokenAddressToCount",
      "outputs": [
        {
          "name": "",
          "type": "uint256"
        }
      ],
      "payable": false,
      "stateMutability": "view",
      "type": "function"
    },
    {
      "constant": true,
      "inputs": [],
      "name": "totalSupply",
      "outputs": [
        {
          "name": "",
          "type": "uint256"
        }
      ],
      "payable": false,
      "stateMutability": "view",
      "type": "function"
    },
    {
      "constant": true,
      "inputs": [],
      "name": "manaPerNFT",
      "outputs": [
        {
          "name": "",
          "type": "uint8"
        }
      ],
      "payable": false,
      "stateMutability": "view",
      "type": "function"
    },
    {
      "constant": false,
      "inputs": [
        {
          "name": "sender",
          "type": "address"
        },
        {
          "name": "recipient",
          "type": "address"
        },
        {
          "name": "amount",
          "type": "uint256"
        }
      ],
      "name": "transferFrom",
      "outputs": [
        {
          "name": "",
          "type": "bool"
        }
      ],
      "payable": false,
      "stateMutability": "nonpayable",
      "type": "function"
    },
    {
      "constant": true,
      "inputs": [
        {
          "name": "",
          "type": "uint256"
        }
      ],
      "name": "idxToDepositedToken",
      "outputs": [
        {
          "name": "tokenAddress",
          "type": "address"
        },
        {
          "name": "tokenId",
          "type": "uint256"
        }
      ],
      "payable": false,
      "stateMutability": "view",
      "type": "function"
    },
    {
      "constant": false,
      "inputs": [
        {
          "name": "spender",
          "type": "address"
        },
        {
          "name": "addedValue",
          "type": "uint256"
        }
      ],
      "name": "increaseAllowance",
      "outputs": [
        {
          "name": "",
          "type": "bool"
        }
      ],
      "payable": false,
      "stateMutability": "nonpayable",
      "type": "function"
    },
    {
      "constant": true,
      "inputs": [
        {
          "name": "account",
          "type": "address"
        }
      ],
      "name": "balanceOf",
      "outputs": [
        {
          "name": "",
          "type": "uint256"
        }
      ],
      "payable": false,
      "stateMutability": "view",
      "type": "function"
    },
    {
      "constant": true,
      "inputs": [],
      "name": "symbol",
      "outputs": [
        {
          "name": "",
          "type": "string"
        }
      ],
      "payable": false,
      "stateMutability": "view",
      "type": "function"
    },
    {
      "constant": false,
      "inputs": [
        {
          "name": "spender",
          "type": "address"
        },
        {
          "name": "subtractedValue",
          "type": "uint256"
        }
      ],
      "name": "decreaseAllowance",
      "outputs": [
        {
          "name": "",
          "type": "bool"
        }
      ],
      "payable": false,
      "stateMutability": "nonpayable",
      "type": "function"
    },
    {
      "constant": false,
      "inputs": [
        {
          "name": "recipient",
          "type": "address"
        },
        {
          "name": "amount",
          "type": "uint256"
        }
      ],
      "name": "transfer",
      "outputs": [
        {
          "name": "",
          "type": "bool"
        }
      ],
      "payable": false,
      "stateMutability": "nonpayable",
      "type": "function"
    },
    {
      "constant": true,
      "inputs": [],
      "name": "lastIdx",
      "outputs": [
        {
          "name": "",
          "type": "uint256"
        }
      ],
      "payable": false,
      "stateMutability": "view",
      "type": "function"
    },
    {
      "constant": true,
      "inputs": [
        {
          "name": "owner",
          "type": "address"
        },
        {
          "name": "spender",
          "type": "address"
        }
      ],
      "name": "allowance",
      "outputs": [
        {
          "name": "",
          "type": "uint256"
        }
      ],
      "payable": false,
      "stateMutability": "view",
      "type": "function"
    },
    {
      "anonymous": false,
      "inputs": [
        {
          "indexed": false,
          "name": "nftAddress",
          "type": "address"
        },
        {
          "indexed": false,
          "name": "tokenId",
          "type": "uint256"
        }
      ],
      "name": "GetMana",
      "type": "event"
    },
    {
      "anonymous": false,
      "inputs": [
        {
          "indexed": false,
          "name": "nftAddress",
          "type": "address"
        },
        {
          "indexed": false,
          "name": "tokenId",
          "type": "uint256"
        }
      ],
      "name": "BurnMana",
      "type": "event"
    },
    {
      "anonymous": false,
      "inputs": [
        {
          "indexed": true,
          "name": "from",
          "type": "address"
        },
        {
          "indexed": true,
          "name": "to",
          "type": "address"
        },
        {
          "indexed": false,
          "name": "value",
          "type": "uint256"
        }
      ],
      "name": "Transfer",
      "type": "event"
    },
    {
      "anonymous": false,
      "inputs": [
        {
          "indexed": true,
          "name": "owner",
          "type": "address"
        },
        {
          "indexed": true,
          "name": "spender",
          "type": "address"
        },
        {
          "indexed": false,
          "name": "value",
          "type": "uint256"
        }
      ],
      "name": "Approval",
      "type": "event"
    },
    {
      "constant": false,
      "inputs": [
        {
          "name": "_tokenAddresses",
          "type": "address[]"
        },
        {
          "name": "_tokenIds",
          "type": "uint256[]"
        }
      ],
      "name": "getMana",
      "outputs": [],
      "payable": false,
      "stateMutability": "nonpayable",
      "type": "function"
    },
    {
      "constant": false,
      "inputs": [
        {
          "name": "manaToBurn",
          "type": "uint256"
        }
      ],
      "name": "burnMana",
      "outputs": [],
      "payable": false,
      "stateMutability": "nonpayable",
      "type": "function"
    }
  ],
  "bytecode": "0x60806040526000600555600160038190555061233b806100206000396000f3fe608060405234801561001057600080fd5b50600436106101005760003560e01c80633950935111610097578063a457c2d711610066578063a457c2d7146105c0578063a9059cbb14610626578063d486645c1461068c578063dd62ed3e146106aa57610100565b806339509351146104515780635c417695146104b757806370a08231146104e557806395d89b411461053d57610100565b80632016c4e0116100d35780632016c4e014610264578063209159db1461033257806323b872dd1461035657806332610db6146103dc57610100565b806306fdde0314610105578063095ea7b3146101885780630f1258b6146101ee57806318160ddd14610246575b600080fd5b61010d610722565b6040518080602001828103825283818151815260200191508051906020019080838360005b8381101561014d578082015181840152602081019050610132565b50505050905090810190601f16801561017a5780820380516001836020036101000a031916815260200191505b509250505060405180910390f35b6101d46004803603604081101561019e57600080fd5b81019080803573ffffffffffffffffffffffffffffffffffffffff1690602001909291908035906020019092919050505061075b565b604051808215151515815260200191505060405180910390f35b6102306004803603602081101561020457600080fd5b81019080803573ffffffffffffffffffffffffffffffffffffffff169060200190929190505050610772565b6040518082815260200191505060405180910390f35b61024e61078a565b6040518082815260200191505060405180910390f35b6103306004803603604081101561027a57600080fd5b810190808035906020019064010000000081111561029757600080fd5b8201836020820111156102a957600080fd5b803590602001918460208302840111640100000000831117156102cb57600080fd5b9091929391929390803590602001906401000000008111156102ec57600080fd5b8201836020820111156102fe57600080fd5b8035906020019184602083028401116401000000008311171561032057600080fd5b9091929391929390505050610794565b005b61033a610bc9565b604051808260ff1660ff16815260200191505060405180910390f35b6103c26004803603606081101561036c57600080fd5b81019080803573ffffffffffffffffffffffffffffffffffffffff169060200190929190803573ffffffffffffffffffffffffffffffffffffffff16906020019092919080359060200190929190505050610bce565b604051808215151515815260200191505060405180910390f35b610408600480360360208110156103f257600080fd5b8101908080359060200190929190505050610c7f565b604051808373ffffffffffffffffffffffffffffffffffffffff1673ffffffffffffffffffffffffffffffffffffffff1681526020018281526020019250505060405180910390f35b61049d6004803603604081101561046757600080fd5b81019080803573ffffffffffffffffffffffffffffffffffffffff16906020019092919080359060200190929190505050610cc3565b604051808215151515815260200191505060405180910390f35b6104e3600480360360208110156104cd57600080fd5b8101908080359060200190929190505050610d68565b005b610527600480360360208110156104fb57600080fd5b81019080803573ffffffffffffffffffffffffffffffffffffffff16906020019092919050505061108e565b6040518082815260200191505060405180910390f35b6105456110d6565b6040518080602001828103825283818151815260200191508051906020019080838360005b8381101561058557808201518184015260208101905061056a565b50505050905090810190601f1680156105b25780820380516001836020036101000a031916815260200191505b509250505060405180910390f35b61060c600480360360408110156105d657600080fd5b81019080803573ffffffffffffffffffffffffffffffffffffffff1690602001909291908035906020019092919050505061110f565b604051808215151515815260200191505060405180910390f35b6106726004803603604081101561063c57600080fd5b81019080803573ffffffffffffffffffffffffffffffffffffffff169060200190929190803590602001909291905050506111b4565b604051808215151515815260200191505060405180910390f35b6106946111cb565b6040518082815260200191505060405180910390f35b61070c600480360360408110156106c057600080fd5b81019080803573ffffffffffffffffffffffffffffffffffffffff169060200190929190803573ffffffffffffffffffffffffffffffffffffffff1690602001909291905050506111d1565b6040518082815260200191505060405180910390f35b6040518060400160405280600e81526020017f4d616e6142616e6b20746f6b656e00000000000000000000000000000000000081525081565b6000610768338484611258565b6001905092915050565b60066020528060005260406000206000915090505481565b6000600254905090565b60016003600082825401925050819055506000600354905082829050858590501461080a576040517f08c379a000000000000000000000000000000000000000000000000000000000815260040180806020018281038252604881526020018061212a6048913960600191505060405180910390fd5b60008585905011610866576040517f08c379a00000000000000000000000000000000000000000000000000000000081526004018080602001828103825260318152602001806121f36031913960400191505060405180910390fd5b60008090505b85859050811015610b2757600086868381811061088557fe5b9050602002013573ffffffffffffffffffffffffffffffffffffffff16905060008585848181106108b257fe5b90506020020135905060008290503373ffffffffffffffffffffffffffffffffffffffff168173ffffffffffffffffffffffffffffffffffffffff16636352211e846040518263ffffffff1660e01b81526004018082815260200191505060206040518083038186803b15801561092857600080fd5b505afa15801561093c573d6000803e3d6000fd5b505050506040513d602081101561095257600080fd5b810190808051906020019092919050505073ffffffffffffffffffffffffffffffffffffffff16146109cf576040517f08c379a000000000000000000000000000000000000000000000000000000000815260040180806020018281038252603a815260200180612224603a913960400191505060405180910390fd5b8073ffffffffffffffffffffffffffffffffffffffff166323b872dd3330856040518463ffffffff1660e01b8152600401808473ffffffffffffffffffffffffffffffffffffffff1673ffffffffffffffffffffffffffffffffffffffff1681526020018373ffffffffffffffffffffffffffffffffffffffff1673ffffffffffffffffffffffffffffffffffffffff1681526020018281526020019350505050600060405180830381600087803b158015610a8a57600080fd5b505af1158015610a9e573d6000803e3d6000fd5b50505050610aac838361144f565b7fd55c4b8e326507a6501cd1df072e418092b77b8232fff7a1100c4cbc0546927e8383604051808373ffffffffffffffffffffffffffffffffffffffff1673ffffffffffffffffffffffffffffffffffffffff1681526020018281526020019250505060405180910390a1505050808060010191505061086c565b50610b4b33610b46606460ff168888905061156b90919063ffffffff16565b6115f1565b6003548114610bc2576040517f08c379a000000000000000000000000000000000000000000000000000000000815260040180806020018281038252601f8152602001807f5265656e7472616e637947756172643a207265656e7472616e742063616c6c0081525060200191505060405180910390fd5b5050505050565b606481565b6000610bdb8484846117ac565b610c748433610c6f85600160008a73ffffffffffffffffffffffffffffffffffffffff1673ffffffffffffffffffffffffffffffffffffffff16815260200190815260200160002060003373ffffffffffffffffffffffffffffffffffffffff1673ffffffffffffffffffffffffffffffffffffffff16815260200190815260200160002054611a4890919063ffffffff16565b611258565b600190509392505050565b60046020528060005260406000206000915090508060000160009054906101000a900473ffffffffffffffffffffffffffffffffffffffff16908060010154905082565b6000610d5e3384610d5985600160003373ffffffffffffffffffffffffffffffffffffffff1673ffffffffffffffffffffffffffffffffffffffff16815260200190815260200160002060008973ffffffffffffffffffffffffffffffffffffffff1673ffffffffffffffffffffffffffffffffffffffff16815260200190815260200160002054611ad190919063ffffffff16565b611258565b6001905092915050565b600160036000828254019250508190555060006003549050606460ff16821015610ddd576040517f08c379a000000000000000000000000000000000000000000000000000000000815260040180806020018281038252603681526020018061219c6036913960400191505060405180910390fd5b6000610df6606460ff1684611b5990919063ffffffff16565b9050600554811115610e085760055490505b6000610e21606460ff168361156b90919063ffffffff16565b905080610e2d3361108e565b1015610e84576040517f08c379a000000000000000000000000000000000000000000000000000000000815260040180806020018281038252602a815260200180612172602a913960400191505060405180910390fd5b610e8e3382611be8565b60008090505b8281101561101057610ea46120b4565b610eac611d86565b90506000816000015190508073ffffffffffffffffffffffffffffffffffffffff166323b872dd303385602001516040518463ffffffff1660e01b8152600401808473ffffffffffffffffffffffffffffffffffffffff1673ffffffffffffffffffffffffffffffffffffffff1681526020018373ffffffffffffffffffffffffffffffffffffffff1673ffffffffffffffffffffffffffffffffffffffff1681526020018281526020019350505050600060405180830381600087803b158015610f7657600080fd5b505af1158015610f8a573d6000803e3d6000fd5b505050507fae416c310efdf801dde9282a9c4e40a963bd6eb0247e8f406912897e877bb8f582600001518360200151604051808373ffffffffffffffffffffffffffffffffffffffff1673ffffffffffffffffffffffffffffffffffffffff1681526020018281526020019250505060405180910390a150508080600101915050610e94565b505050600354811461108a576040517f08c379a000000000000000000000000000000000000000000000000000000000815260040180806020018281038252601f8152602001807f5265656e7472616e637947756172643a207265656e7472616e742063616c6c0081525060200191505060405180910390fd5b5050565b60008060008373ffffffffffffffffffffffffffffffffffffffff1673ffffffffffffffffffffffffffffffffffffffff168152602001908152602001600020549050919050565b6040518060400160405280600381526020017f584d4e000000000000000000000000000000000000000000000000000000000081525081565b60006111aa33846111a585600160003373ffffffffffffffffffffffffffffffffffffffff1673ffffffffffffffffffffffffffffffffffffffff16815260200190815260200160002060008973ffffffffffffffffffffffffffffffffffffffff1673ffffffffffffffffffffffffffffffffffffffff16815260200190815260200160002054611a4890919063ffffffff16565b611258565b6001905092915050565b60006111c13384846117ac565b6001905092915050565b60055481565b6000600160008473ffffffffffffffffffffffffffffffffffffffff1673ffffffffffffffffffffffffffffffffffffffff16815260200190815260200160002060008373ffffffffffffffffffffffffffffffffffffffff1673ffffffffffffffffffffffffffffffffffffffff16815260200190815260200160002054905092915050565b600073ffffffffffffffffffffffffffffffffffffffff168373ffffffffffffffffffffffffffffffffffffffff1614156112de576040517f08c379a00000000000000000000000000000000000000000000000000000000081526004018080602001828103825260248152602001806122a46024913960400191505060405180910390fd5b600073ffffffffffffffffffffffffffffffffffffffff168273ffffffffffffffffffffffffffffffffffffffff161415611364576040517f08c379a00000000000000000000000000000000000000000000000000000000081526004018080602001828103825260228152602001806121086022913960400191505060405180910390fd5b80600160008573ffffffffffffffffffffffffffffffffffffffff1673ffffffffffffffffffffffffffffffffffffffff16815260200190815260200160002060008473ffffffffffffffffffffffffffffffffffffffff1673ffffffffffffffffffffffffffffffffffffffff168152602001908152602001600020819055508173ffffffffffffffffffffffffffffffffffffffff168373ffffffffffffffffffffffffffffffffffffffff167f8c5be1e5ebec7d5bd14f71427d1e84f3dd0314c0f7b2291e5b200ac8c7c3b925836040518082815260200191505060405180910390a3505050565b600160056000828254019250508190555060405180604001604052808373ffffffffffffffffffffffffffffffffffffffff1681526020018281525060046000600554815260200190815260200160002060008201518160000160006101000a81548173ffffffffffffffffffffffffffffffffffffffff021916908373ffffffffffffffffffffffffffffffffffffffff160217905550602082015181600101559050506001600660008473ffffffffffffffffffffffffffffffffffffffff1673ffffffffffffffffffffffffffffffffffffffff1681526020019081526020016000206000828254019250508190555060016005541115611567576000611557611edd565b905061156581600554611f25565b505b5050565b60008083141561157e57600090506115eb565b600082840290508284828161158f57fe5b04146115e6576040517f08c379a00000000000000000000000000000000000000000000000000000000081526004018080602001828103825260218152602001806121d26021913960400191505060405180910390fd5b809150505b92915050565b600073ffffffffffffffffffffffffffffffffffffffff168273ffffffffffffffffffffffffffffffffffffffff161415611694576040517f08c379a000000000000000000000000000000000000000000000000000000000815260040180806020018281038252601f8152602001807f45524332303a206d696e7420746f20746865207a65726f20616464726573730081525060200191505060405180910390fd5b6116a981600254611ad190919063ffffffff16565b600281905550611700816000808573ffffffffffffffffffffffffffffffffffffffff1673ffffffffffffffffffffffffffffffffffffffff16815260200190815260200160002054611ad190919063ffffffff16565b6000808473ffffffffffffffffffffffffffffffffffffffff1673ffffffffffffffffffffffffffffffffffffffff168152602001908152602001600020819055508173ffffffffffffffffffffffffffffffffffffffff16600073ffffffffffffffffffffffffffffffffffffffff167fddf252ad1be2c89b69c2b068fc378daa952ba7f163c4a11628f55a4df523b3ef836040518082815260200191505060405180910390a35050565b600073ffffffffffffffffffffffffffffffffffffffff168373ffffffffffffffffffffffffffffffffffffffff161415611832576040517f08c379a000000000000000000000000000000000000000000000000000000000815260040180806020018281038252602581526020018061227f6025913960400191505060405180910390fd5b600073ffffffffffffffffffffffffffffffffffffffff168273ffffffffffffffffffffffffffffffffffffffff1614156118b8576040517f08c379a00000000000000000000000000000000000000000000000000000000081526004018080602001828103825260238152602001806120e56023913960400191505060405180910390fd5b611909816000808673ffffffffffffffffffffffffffffffffffffffff1673ffffffffffffffffffffffffffffffffffffffff16815260200190815260200160002054611a4890919063ffffffff16565b6000808573ffffffffffffffffffffffffffffffffffffffff1673ffffffffffffffffffffffffffffffffffffffff1681526020019081526020016000208190555061199c816000808573ffffffffffffffffffffffffffffffffffffffff1673ffffffffffffffffffffffffffffffffffffffff16815260200190815260200160002054611ad190919063ffffffff16565b6000808473ffffffffffffffffffffffffffffffffffffffff1673ffffffffffffffffffffffffffffffffffffffff168152602001908152602001600020819055508173ffffffffffffffffffffffffffffffffffffffff168373ffffffffffffffffffffffffffffffffffffffff167fddf252ad1be2c89b69c2b068fc378daa952ba7f163c4a11628f55a4df523b3ef836040518082815260200191505060405180910390a3505050565b600082821115611ac0576040517f08c379a000000000000000000000000000000000000000000000000000000000815260040180806020018281038252601e8152602001807f536166654d6174683a207375627472616374696f6e206f766572666c6f77000081525060200191505060405180910390fd5b600082840390508091505092915050565b600080828401905083811015611b4f576040517f08c379a000000000000000000000000000000000000000000000000000000000815260040180806020018281038252601b8152602001807f536166654d6174683a206164646974696f6e206f766572666c6f77000000000081525060200191505060405180910390fd5b8091505092915050565b6000808211611bd0576040517f08c379a000000000000000000000000000000000000000000000000000000000815260040180806020018281038252601a8152602001807f536166654d6174683a206469766973696f6e206279207a65726f00000000000081525060200191505060405180910390fd5b6000828481611bdb57fe5b0490508091505092915050565b600073ffffffffffffffffffffffffffffffffffffffff168273ffffffffffffffffffffffffffffffffffffffff161415611c6e576040517f08c379a000000000000000000000000000000000000000000000000000000000815260040180806020018281038252602181526020018061225e6021913960400191505060405180910390fd5b611c8381600254611a4890919063ffffffff16565b600281905550611cda816000808573ffffffffffffffffffffffffffffffffffffffff1673ffffffffffffffffffffffffffffffffffffffff16815260200190815260200160002054611a4890919063ffffffff16565b6000808473ffffffffffffffffffffffffffffffffffffffff1673ffffffffffffffffffffffffffffffffffffffff16815260200190815260200160002081905550600073ffffffffffffffffffffffffffffffffffffffff168273ffffffffffffffffffffffffffffffffffffffff167fddf252ad1be2c89b69c2b068fc378daa952ba7f163c4a11628f55a4df523b3ef836040518082815260200191505060405180910390a35050565b611d8e6120b4565b600060055411611de9576040517f08c379a000000000000000000000000000000000000000000000000000000000815260040180806020018281038252603f8152602001806122c8603f913960400191505060405180910390fd5b611df16120b4565b6004600060055481526020019081526020016000206040518060400160405290816000820160009054906101000a900473ffffffffffffffffffffffffffffffffffffffff1673ffffffffffffffffffffffffffffffffffffffff1673ffffffffffffffffffffffffffffffffffffffff16815260200160018201548152505090506001600560008282540392505081905550600160066000836000015173ffffffffffffffffffffffffffffffffffffffff1673ffffffffffffffffffffffffffffffffffffffff168152602001908152602001600020600082825403925050819055508091505090565b600060026005541015611ef35760009050611f22565b60026005541415611f075760019050611f22565b60006001600554034281611f1757fe5b069050600181019150505b90565b611f2d6120b4565b600460008481526020019081526020016000206040518060400160405290816000820160009054906101000a900473ffffffffffffffffffffffffffffffffffffffff1673ffffffffffffffffffffffffffffffffffffffff1673ffffffffffffffffffffffffffffffffffffffff168152602001600182015481525050905060046000838152602001908152602001600020600460008581526020019081526020016000206000820160009054906101000a900473ffffffffffffffffffffffffffffffffffffffff168160000160006101000a81548173ffffffffffffffffffffffffffffffffffffffff021916908373ffffffffffffffffffffffffffffffffffffffff16021790555060018201548160010155905050806004600084815260200190815260200160002060008201518160000160006101000a81548173ffffffffffffffffffffffffffffffffffffffff021916908373ffffffffffffffffffffffffffffffffffffffff16021790555060208201518160010155905050505050565b6040518060400160405280600073ffffffffffffffffffffffffffffffffffffffff16815260200160008152509056fe45524332303a207472616e7366657220746f20746865207a65726f206164647265737345524332303a20617070726f766520746f20746865207a65726f20616464726573734d616e6142616e6b3a204d757374207370656369667920616e20657175616c206e756d626572206f6620746f6b656e7320616e6420746f6b656e49647320746f206465706f7369744d616e6142616e6b3a20596f75206d757374206f776e20656e6f756768206d616e6120746f206275726e4d616e6142616e6b3a204d757374206275726e20656e6f756768206d616e6120666f72206174206c65617374206f6e6520746f6b656e536166654d6174683a206d756c7469706c69636174696f6e206f766572666c6f774d616e6142616e6b3a204d757374206465706f7369742061206e6f6e7a65726f206e756d626572206f6620746f6b656e734d616e6142616e6b3a20596f75206d757374206f776e20616c6c20746f6b656e73206265696e67206465706f736974656420666f72206d616e6145524332303a206275726e2066726f6d20746865207a65726f206164647265737345524332303a207472616e736665722066726f6d20746865207a65726f206164647265737345524332303a20617070726f76652066726f6d20746865207a65726f20616464726573734d616e6142616e6b3a2043616e2774207769746864726177206120746f6b656e207768656e206e6f6e652068617665206265656e206465706f736974656421a265627a7a72305820a48be41f65a82a94ec4e9d6e978cdee5d992d8669496f1956828281eaeeef37264736f6c634300050a0032",
  "source": "pragma solidity ^0.5.10;\n\nimport \"@openzeppelin/contracts/utils/ReentrancyGuard.sol\";\nimport \"@openzeppelin/contracts/token/ERC20/ERC20.sol\";\nimport \"@openzeppelin/contracts/math/SafeMath.sol\";\nimport \"@openzeppelin/contracts/token/ERC721/IERC721.sol\";\n\ncontract ManaBank is ERC20, ReentrancyGuard {\n    using SafeMath for uint256;\n\n    string constant public name = \"ManaBank token\";\n    string constant public symbol = \"XMN\";\n\n    uint8 public constant manaPerNFT = 100;\n\n    // NOTE: Both of the following events assume manaPerNFT burned/gotten on each event\n    event GetMana (\n        address nftAddress,\n        uint256 tokenId\n    );\n    event BurnMana(\n        address nftAddress,\n        uint256 tokenId\n    );\n\n    struct DepositedToken {\n        address tokenAddress;\n        uint256 tokenId;\n    }\n\n    mapping(uint256 => DepositedToken) public idxToDepositedToken;\n    uint256 public lastIdx = 0;\n\n    // NOTE: Redundant and for a 'production' app, this caching should happen in the client\n    mapping(address => uint256) public tokenAddressToCount;\n\n    // NOTE: Gets a random index *less than* than last index that has an element at it\n    function _getRandomIdx() internal view returns (uint256) {\n        if (lastIdx < 2) {\n            // NOTE: Should never get here\n            return 0;\n        } else if (lastIdx == 2) {\n            return 1;\n        } else {\n            // NOTE: blockhash might be slightly harder to grind\n            uint256 zeroIndexed = block.timestamp % (lastIdx - 1);\n            return zeroIndexed + 1;\n        }\n    }\n\n    function _swap(uint256 idx1, uint256 idx2) internal {\n        // TODO: Make sure this works\n        DepositedToken memory token1 = idxToDepositedToken[idx1];\n        idxToDepositedToken[idx1] = idxToDepositedToken[idx2];\n        idxToDepositedToken[idx2] = token1;\n    }\n\n    function _depositToken(address _tokenAddress, uint256 _tokenId) internal {\n        lastIdx += 1;\n        idxToDepositedToken[lastIdx] = DepositedToken(\n            _tokenAddress,\n            _tokenId\n        );\n        tokenAddressToCount[_tokenAddress] += 1;\n\n        // swap with random item in mapping if there are two or more elements\n        if (lastIdx > 1) {\n            uint256 randomIdx = _getRandomIdx();\n            _swap(randomIdx, lastIdx);\n        }\n    }\n\n    function _withdrawToken() internal returns (DepositedToken memory) {\n        require(lastIdx > 0, \"ManaBank: Can't withdraw a token when none have been deposited!\");\n\n        DepositedToken memory toReturn = idxToDepositedToken[lastIdx];\n        lastIdx -= 1;\n        tokenAddressToCount[toReturn.tokenAddress] -= 1;\n\n        return toReturn;\n    }\n\n    function getMana(address[] calldata _tokenAddresses, uint256[] calldata _tokenIds) external nonReentrant {\n        require(\n            _tokenAddresses.length == _tokenIds.length,\n            \"ManaBank: Must specify an equal number of tokens and tokenIds to deposit\"\n        );\n        require(_tokenAddresses.length > 0, \"ManaBank: Must deposit a nonzero number of tokens\");\n\n        for(uint i = 0; i < _tokenAddresses.length; i++){\n            address tokenAddress = _tokenAddresses[i];\n            uint256 tokenId = _tokenIds[i];\n\n            IERC721 tokenContract = IERC721(tokenAddress); // NOTE: If the gas cost of this is prohibitive,\n                                                           // we could constrain the 721s to Kitties/Wizards\n                                                           // explicitly; check assembly later\n            require(\n                tokenContract.ownerOf(tokenId) == msg.sender,\n                \"ManaBank: You must own all tokens being deposited for mana\"\n            );\n\n            tokenContract.transferFrom(msg.sender, address(this), tokenId);\n            _depositToken(tokenAddress, tokenId);\n\n            emit GetMana(tokenAddress, tokenId);\n        }\n\n        // NOTE: Mint all mana at end to save gas\n        _mint(msg.sender, (_tokenAddresses.length).mul(manaPerNFT));\n    }\n\n    function burnMana(uint256 manaToBurn) external nonReentrant {\n        require(manaToBurn >= manaPerNFT, \"ManaBank: Must burn enough mana for at least one token\");\n\n        uint256 numTokensToSend = manaToBurn.div(manaPerNFT);\n        if (numTokensToSend > lastIdx) {\n            numTokensToSend = lastIdx;\n        }\n\n        // Burn only the minimum amount of mana required to withdraw the specified tokens\n        uint256 actualManaToBurn = numTokensToSend.mul(manaPerNFT);\n        require(balanceOf(msg.sender) >= actualManaToBurn, \"ManaBank: You must own enough mana to burn\");\n        _burn(msg.sender, actualManaToBurn);\n\n        // Withdraw all tokens\n        for (uint i = 0; i < numTokensToSend; i++) {\n            DepositedToken memory tokenToSend = _withdrawToken();\n\n            IERC721 tokenContract = IERC721(tokenToSend.tokenAddress);\n            tokenContract.transferFrom(address(this), msg.sender, tokenToSend.tokenId);\n\n            emit BurnMana(tokenToSend.tokenAddress, tokenToSend.tokenId);\n        }\n    }\n}\n",
  "sourcePath": "/Users/lakshmansankar/src/mana-bank/contracts/ManaBank.sol",
  "compiler": {
    "name": "solc",
    "version": "0.5.10+commit.5a6ea5b1.Emscripten.clang"
  },
  "schemaVersion": "3.0.11",
  "updatedAt": "2019-09-14T08:27:05.555Z",
  "devdoc": {
    "methods": {
      "allowance(address,address)": {
        "details": "See `IERC20.allowance`."
      },
      "approve(address,uint256)": {
        "details": "See `IERC20.approve`.     * Requirements:     * - `spender` cannot be the zero address."
      },
      "balanceOf(address)": {
        "details": "See `IERC20.balanceOf`."
      },
      "decreaseAllowance(address,uint256)": {
        "details": "Atomically decreases the allowance granted to `spender` by the caller.     * This is an alternative to `approve` that can be used as a mitigation for problems described in `IERC20.approve`.     * Emits an `Approval` event indicating the updated allowance.     * Requirements:     * - `spender` cannot be the zero address. - `spender` must have allowance for the caller of at least `subtractedValue`."
      },
      "increaseAllowance(address,uint256)": {
        "details": "Atomically increases the allowance granted to `spender` by the caller.     * This is an alternative to `approve` that can be used as a mitigation for problems described in `IERC20.approve`.     * Emits an `Approval` event indicating the updated allowance.     * Requirements:     * - `spender` cannot be the zero address."
      },
      "totalSupply()": {
        "details": "See `IERC20.totalSupply`."
      },
      "transfer(address,uint256)": {
        "details": "See `IERC20.transfer`.     * Requirements:     * - `recipient` cannot be the zero address. - the caller must have a balance of at least `amount`."
      },
      "transferFrom(address,address,uint256)": {
        "details": "See `IERC20.transferFrom`.     * Emits an `Approval` event indicating the updated allowance. This is not required by the EIP. See the note at the beginning of `ERC20`;     * Requirements: - `sender` and `recipient` cannot be the zero address. - `sender` must have a balance of at least `value`. - the caller must have allowance for `sender`'s tokens of at least `amount`."
      }
    }
  },
  "userdoc": {
    "methods": {}
  }
}